{
  "address": "0x9b9B3AB85D9FC40Ea6dF14DA45c12D43F9f00C61",
  "abi": [
    {
      "anonymous": false,
      "inputs": [
        {
          "indexed": true,
          "internalType": "address",
          "name": "token",
          "type": "address"
        },
        {
          "indexed": true,
          "internalType": "address",
          "name": "account",
          "type": "address"
        },
        {
          "indexed": true,
          "internalType": "uint256",
          "name": "update",
          "type": "uint256"
        },
        {
          "indexed": false,
          "internalType": "uint256",
          "name": "index",
          "type": "uint256"
        },
        {
          "indexed": false,
          "internalType": "uint256",
          "name": "amount",
          "type": "uint256"
        }
      ],
      "name": "Claimed",
      "type": "event"
    },
    {
      "anonymous": false,
      "inputs": [
        {
          "indexed": true,
          "internalType": "address",
          "name": "token",
          "type": "address"
        },
        {
          "indexed": true,
          "internalType": "bytes32",
          "name": "merkleRoot",
          "type": "bytes32"
        },
        {
          "indexed": true,
          "internalType": "uint256",
          "name": "update",
          "type": "uint256"
        }
      ],
      "name": "MerkleRootUpdated",
      "type": "event"
    },
    {
      "anonymous": false,
      "inputs": [
        {
          "indexed": true,
          "internalType": "address",
          "name": "previousOwner",
          "type": "address"
        },
        {
          "indexed": true,
          "internalType": "address",
          "name": "newOwner",
          "type": "address"
        }
      ],
      "name": "OwnershipTransferred",
      "type": "event"
    },
    {
      "inputs": [
        {
          "components": [
            {
              "internalType": "address",
              "name": "token",
              "type": "address"
            },
            {
              "internalType": "address",
              "name": "account",
              "type": "address"
            },
            {
              "internalType": "uint256",
              "name": "index",
              "type": "uint256"
            },
            {
              "internalType": "uint256",
              "name": "amount",
              "type": "uint256"
            },
            {
              "internalType": "bytes32[]",
              "name": "merkleProof",
              "type": "bytes32[]"
            }
          ],
          "internalType": "struct MultiMerkleDistributor.Claim[]",
          "name": "claims",
          "type": "tuple[]"
        }
      ],
      "name": "claim",
      "outputs": [],
      "stateMutability": "nonpayable",
      "type": "function"
    },
    {
      "inputs": [
        {
          "internalType": "address",
          "name": "token",
          "type": "address"
        },
        {
          "internalType": "uint256",
          "name": "index",
          "type": "uint256"
        }
      ],
      "name": "isClaimed",
      "outputs": [
        {
          "internalType": "bool",
          "name": "",
          "type": "bool"
        }
      ],
      "stateMutability": "view",
      "type": "function"
    },
    {
      "inputs": [
        {
          "internalType": "address",
          "name": "",
          "type": "address"
        }
      ],
      "name": "merkleRoot",
      "outputs": [
        {
          "internalType": "bytes32",
          "name": "",
          "type": "bytes32"
        }
      ],
      "stateMutability": "view",
      "type": "function"
    },
    {
      "inputs": [],
      "name": "owner",
      "outputs": [
        {
          "internalType": "address",
          "name": "",
          "type": "address"
        }
      ],
      "stateMutability": "view",
      "type": "function"
    },
    {
      "inputs": [],
      "name": "renounceOwnership",
      "outputs": [],
      "stateMutability": "nonpayable",
      "type": "function"
    },
    {
      "inputs": [
        {
          "internalType": "address",
          "name": "newOwner",
          "type": "address"
        }
      ],
      "name": "transferOwnership",
      "outputs": [],
      "stateMutability": "nonpayable",
      "type": "function"
    },
    {
      "inputs": [
        {
          "internalType": "address",
          "name": "",
          "type": "address"
        }
      ],
      "name": "update",
      "outputs": [
        {
          "internalType": "uint256",
          "name": "",
          "type": "uint256"
        }
      ],
      "stateMutability": "view",
      "type": "function"
    },
    {
      "inputs": [
        {
          "internalType": "address[]",
          "name": "tokens",
          "type": "address[]"
        },
        {
          "internalType": "bytes32[]",
          "name": "_merkleRoots",
          "type": "bytes32[]"
        }
      ],
      "name": "updateMerkleRoots",
      "outputs": [],
      "stateMutability": "nonpayable",
      "type": "function"
    }
  ],
  "transactionHash": "0x37bfcfefd53d966a6cc7f23c986a67e443c6cc0a48dcdf07df906b676f09e8e8",
  "args": [],
  "solcInputHash": "f11050518f5ea1cca811029dda16a9ff",
  "bytecode": "0x608060405234801561001057600080fd5b5061001a3361001f565b61006f565b600080546001600160a01b038381166001600160a01b0319831681178455604051919092169283917f8be0079c531659141344cd1fd0a4f28419497f9722a3daafe3b4186f6b6457e09190a35050565b6110718061007e6000396000f3fe608060405234801561001057600080fd5b50600436106100885760003560e01c80638da5cb5b1161005b5780638da5cb5b14610100578063e21115861461011b578063f2fde38b1461013b578063fb7e92ea1461014e57600080fd5b80631c1b87721461008d5780632c0046c1146100c0578063562beba8146100d5578063715018a6146100f8575b600080fd5b6100ad61009b366004610df5565b60026020526000908152604090205481565b6040519081526020015b60405180910390f35b6100d36100ce366004610e38565b610161565b005b6100e86100e3366004610e0f565b6103c3565b60405190151581526020016100b7565b6100d361042b565b6000546040516001600160a01b0390911681526020016100b7565b6100ad610129366004610df5565b60016020526000908152604090205481565b6100d3610149366004610df5565b610491565b6100d361015c366004610ea1565b610573565b6000546001600160a01b031633146101c05760405162461bcd60e51b815260206004820181905260248201527f4f776e61626c653a2063616c6c6572206973206e6f7420746865206f776e657260448201526064015b60405180910390fd5b60005b838110156103bc576001600260008787858181106101f157634e487b7160e01b600052603260045260246000fd5b90506020020160208101906102069190610df5565b6001600160a01b03166001600160a01b0316815260200190815260200160002060008282546102359190610fad565b90915550839050828281811061025b57634e487b7160e01b600052603260045260246000fd5b905060200201356001600087878581811061028657634e487b7160e01b600052603260045260246000fd5b905060200201602081019061029b9190610df5565b6001600160a01b03166001600160a01b0316815260200190815260200160002081905550600260008686848181106102e357634e487b7160e01b600052603260045260246000fd5b90506020020160208101906102f89190610df5565b6001600160a01b03166001600160a01b031681526020019081526020016000205483838381811061033957634e487b7160e01b600052603260045260246000fd5b9050602002013586868481811061036057634e487b7160e01b600052603260045260246000fd5b90506020020160208101906103759190610df5565b6001600160a01b03167fbdc375de8a677af383c6ee6f8b2027dbd231c3c47453ce81d1ce8f1bcdb722dc60405160405180910390a4806103b481611009565b9150506101c3565b5050505050565b6000806103d261010084610fc5565b905060006103e261010085611024565b6001600160a01b03861660009081526003602090815260408083206002835281842054845282528083209583529490529290922054600190921b91821690911491505092915050565b6000546001600160a01b031633146104855760405162461bcd60e51b815260206004820181905260248201527f4f776e61626c653a2063616c6c6572206973206e6f7420746865206f776e657260448201526064016101b7565b61048f60006106cc565b565b6000546001600160a01b031633146104eb5760405162461bcd60e51b815260206004820181905260248201527f4f776e61626c653a2063616c6c6572206973206e6f7420746865206f776e657260448201526064016101b7565b6001600160a01b0381166105675760405162461bcd60e51b815260206004820152602660248201527f4f776e61626c653a206e6577206f776e657220697320746865207a65726f206160448201527f646472657373000000000000000000000000000000000000000000000000000060648201526084016101b7565b610570816106cc565b50565b60005b818110156106c7576106b58383838181106105a157634e487b7160e01b600052603260045260246000fd5b90506020028101906105b39190610f98565b6105c1906020810190610df5565b8484848181106105e157634e487b7160e01b600052603260045260246000fd5b90506020028101906105f39190610f98565b6040013585858581811061061757634e487b7160e01b600052603260045260246000fd5b90506020028101906106299190610f98565b61063a906040810190602001610df5565b86868681811061065a57634e487b7160e01b600052603260045260246000fd5b905060200281019061066c9190610f98565b6060013587878781811061069057634e487b7160e01b600052603260045260246000fd5b90506020028101906106a29190610f98565b6106b0906080810190610f50565b610734565b806106bf81611009565b915050610576565b505050565b600080546001600160a01b038381167fffffffffffffffffffffffff0000000000000000000000000000000000000000831681178455604051919092169283917f8be0079c531659141344cd1fd0a4f28419497f9722a3daafe3b4186f6b6457e09190a35050565b6001600160a01b0386166000908152600160205260409020546107995760405162461bcd60e51b815260206004820152601e60248201527f4d756c74694d65726b6c654469737472696275746f723a2046726f7a656e000060448201526064016101b7565b6107a386866103c3565b156108165760405162461bcd60e51b815260206004820152602c60248201527f4d756c74694d65726b6c654469737472696275746f723a2044726f7020616c7260448201527f6561647920636c61696d6564000000000000000000000000000000000000000060648201526084016101b7565b60408051602081018790526bffffffffffffffffffffffff19606087901b1691810191909152605481018490526000906074016040516020818303038152906040528051906020012090506108b583838080602002602001604051908101604052809392919081815260200183836020028082843760009201829052506001600160a01b038d1681526001602052604090205492508591506109a79050565b6109275760405162461bcd60e51b815260206004820152602560248201527f4d756c74694d65726b6c654469737472696275746f723a20496e76616c69642060448201527f70726f6f6600000000000000000000000000000000000000000000000000000060648201526084016101b7565b6109318787610a66565b6109456001600160a01b0388168686610acb565b6001600160a01b038781166000818152600260209081526040918290205482518b815291820189905293891692917fd795915374024be1f03204e052bd584b33bb85c9128ede9c54adbe0bbdc22095910160405180910390a450505050505050565b600081815b8551811015610a595760008682815181106109d757634e487b7160e01b600052603260045260246000fd5b60200260200101519050808311610a19576040805160208101859052908101829052606001604051602081830303815290604052805190602001209250610a46565b60408051602081018390529081018490526060016040516020818303038152906040528051906020012092505b5080610a5181611009565b9150506109ac565b50831490505b9392505050565b6000610a7461010083610fc5565b90506000610a8461010084611024565b6001600160a01b03949094166000908152600360209081526040808320600283528184205484528252808320948352939052919091208054600190941b9093179092555050565b604080516001600160a01b03848116602483015260448083018590528351808403909101815260649092018352602080830180517bffffffffffffffffffffffffffffffffffffffffffffffffffffffff1663a9059cbb60e01b17905283518085019094528084527f5361666545524332303a206c6f772d6c6576656c2063616c6c206661696c6564908401526106c792869291600091610b70918516908490610c00565b8051909150156106c75780806020019051810190610b8e9190610ee1565b6106c75760405162461bcd60e51b815260206004820152602a60248201527f5361666545524332303a204552433230206f7065726174696f6e20646964206e60448201527f6f7420737563636565640000000000000000000000000000000000000000000060648201526084016101b7565b6060610c0f8484600085610c17565b949350505050565b606082471015610c8f5760405162461bcd60e51b815260206004820152602660248201527f416464726573733a20696e73756666696369656e742062616c616e636520666f60448201527f722063616c6c000000000000000000000000000000000000000000000000000060648201526084016101b7565b843b610cdd5760405162461bcd60e51b815260206004820152601d60248201527f416464726573733a2063616c6c20746f206e6f6e2d636f6e747261637400000060448201526064016101b7565b600080866001600160a01b03168587604051610cf99190610f01565b60006040518083038185875af1925050503d8060008114610d36576040519150601f19603f3d011682016040523d82523d6000602084013e610d3b565b606091505b5091509150610d4b828286610d56565b979650505050505050565b60608315610d65575081610a5f565b825115610d755782518084602001fd5b8160405162461bcd60e51b81526004016101b79190610f1d565b80356001600160a01b0381168114610da657600080fd5b919050565b60008083601f840112610dbc578182fd5b50813567ffffffffffffffff811115610dd3578182fd5b6020830191508360208260051b8501011115610dee57600080fd5b9250929050565b600060208284031215610e06578081fd5b610a5f82610d8f565b60008060408385031215610e21578081fd5b610e2a83610d8f565b946020939093013593505050565b60008060008060408587031215610e4d578182fd5b843567ffffffffffffffff80821115610e64578384fd5b610e7088838901610dab565b90965094506020870135915080821115610e88578384fd5b50610e9587828801610dab565b95989497509550505050565b60008060208385031215610eb3578182fd5b823567ffffffffffffffff811115610ec9578283fd5b610ed585828601610dab565b90969095509350505050565b600060208284031215610ef2578081fd5b81518015158114610a5f578182fd5b60008251610f13818460208701610fd9565b9190910192915050565b6020815260008251806020840152610f3c816040850160208701610fd9565b601f01601f19169190910160400192915050565b6000808335601e19843603018112610f66578283fd5b83018035915067ffffffffffffffff821115610f80578283fd5b6020019150600581901b3603821315610dee57600080fd5b60008235609e19833603018112610f13578182fd5b60008219821115610fc057610fc0611038565b500190565b600082610fd457610fd461104e565b500490565b60005b83811015610ff4578181015183820152602001610fdc565b83811115611003576000848401525b50505050565b600060001982141561101d5761101d611038565b5060010190565b6000826110335761103361104e565b500690565b634e487b7160e01b600052601160045260246000fd5b634e487b7160e01b600052601260045260246000fdfea164736f6c6343000804000a",
  "devdoc": {
    "kind": "dev",
    "methods": {
      "owner()": {
        "details": "Returns the address of the current owner."
      },
      "renounceOwnership()": {
        "details": "Leaves the contract without owner. It will not be possible to call `onlyOwner` functions anymore. Can only be called by the current owner. NOTE: Renouncing ownership will leave the contract without an owner, thereby removing any functionality that is only available to the owner."
      },
      "transferOwnership(address)": {
        "details": "Transfers ownership of the contract to a new account (`newOwner`). Can only be called by the current owner."
      }
    },
    "version": 1
  },
  "userdoc": {
    "kind": "user",
    "methods": {},
    "version": 1
  },
  "storageLayout": {
    "storage": [
      {
        "astId": 387,
        "contract": "contracts/MultiMerkleDistributor.sol:MultiMerkleDistributor",
        "label": "_owner",
        "offset": 0,
        "slot": "0",
        "type": "t_address"
      },
      {
        "astId": 2017,
        "contract": "contracts/MultiMerkleDistributor.sol:MultiMerkleDistributor",
        "label": "merkleRoot",
        "offset": 0,
        "slot": "1",
        "type": "t_mapping(t_address,t_bytes32)"
      },
      {
        "astId": 2021,
        "contract": "contracts/MultiMerkleDistributor.sol:MultiMerkleDistributor",
        "label": "update",
        "offset": 0,
        "slot": "2",
        "type": "t_mapping(t_address,t_uint256)"
      },
      {
        "astId": 2029,
        "contract": "contracts/MultiMerkleDistributor.sol:MultiMerkleDistributor",
        "label": "claimedBitMap",
        "offset": 0,
        "slot": "3",
        "type": "t_mapping(t_address,t_mapping(t_uint256,t_mapping(t_uint256,t_uint256)))"
      }
    ],
    "types": {
      "t_address": {
        "encoding": "inplace",
        "label": "address",
        "numberOfBytes": "20"
      },
      "t_bytes32": {
        "encoding": "inplace",
        "label": "bytes32",
        "numberOfBytes": "32"
      },
      "t_mapping(t_address,t_bytes32)": {
        "encoding": "mapping",
        "key": "t_address",
        "label": "mapping(address => bytes32)",
        "numberOfBytes": "32",
        "value": "t_bytes32"
      },
      "t_mapping(t_address,t_mapping(t_uint256,t_mapping(t_uint256,t_uint256)))": {
        "encoding": "mapping",
        "key": "t_address",
        "label": "mapping(address => mapping(uint256 => mapping(uint256 => uint256)))",
        "numberOfBytes": "32",
        "value": "t_mapping(t_uint256,t_mapping(t_uint256,t_uint256))"
      },
      "t_mapping(t_address,t_uint256)": {
        "encoding": "mapping",
        "key": "t_address",
        "label": "mapping(address => uint256)",
        "numberOfBytes": "32",
        "value": "t_uint256"
      },
      "t_mapping(t_uint256,t_mapping(t_uint256,t_uint256))": {
        "encoding": "mapping",
        "key": "t_uint256",
        "label": "mapping(uint256 => mapping(uint256 => uint256))",
        "numberOfBytes": "32",
        "value": "t_mapping(t_uint256,t_uint256)"
      },
      "t_mapping(t_uint256,t_uint256)": {
        "encoding": "mapping",
        "key": "t_uint256",
        "label": "mapping(uint256 => uint256)",
        "numberOfBytes": "32",
        "value": "t_uint256"
      },
      "t_uint256": {
        "encoding": "inplace",
        "label": "uint256",
        "numberOfBytes": "32"
      }
    }
  }
}