{
  "address": "0x77158da68347F087c7FBEE065249cf4867A2e7d3",
  "abi": [
    {
      "inputs": [
        {
          "internalType": "address",
          "name": "_weth",
          "type": "address"
        }
      ],
      "stateMutability": "nonpayable",
      "type": "constructor"
    },
    {
      "anonymous": false,
      "inputs": [
        {
          "indexed": true,
          "internalType": "address",
          "name": "proposal",
          "type": "address"
        },
        {
          "indexed": true,
          "internalType": "address",
          "name": "token",
          "type": "address"
        },
        {
          "indexed": true,
          "internalType": "address",
          "name": "user",
          "type": "address"
        },
        {
          "indexed": false,
          "internalType": "uint256",
          "name": "amount",
          "type": "uint256"
        }
      ],
      "name": "NewBribe",
      "type": "event"
    },
    {
      "anonymous": false,
      "inputs": [
        {
          "indexed": true,
          "internalType": "address",
          "name": "distributor",
          "type": "address"
        }
      ],
      "name": "NewDistributor",
      "type": "event"
    },
    {
      "anonymous": false,
      "inputs": [
        {
          "indexed": true,
          "internalType": "uint256",
          "name": "fee",
          "type": "uint256"
        }
      ],
      "name": "NewFee",
      "type": "event"
    },
    {
      "anonymous": false,
      "inputs": [
        {
          "indexed": true,
          "internalType": "address",
          "name": "feeAddress",
          "type": "address"
        }
      ],
      "name": "NewFeeAddress",
      "type": "event"
    },
    {
      "anonymous": false,
      "inputs": [
        {
          "indexed": true,
          "internalType": "address",
          "name": "proposal",
          "type": "address"
        },
        {
          "indexed": false,
          "internalType": "uint256",
          "name": "deadline",
          "type": "uint256"
        }
      ],
      "name": "NewProposal",
      "type": "event"
    },
    {
      "anonymous": false,
      "inputs": [
        {
          "indexed": true,
          "internalType": "bytes32",
          "name": "role",
          "type": "bytes32"
        },
        {
          "indexed": true,
          "internalType": "bytes32",
          "name": "previousAdminRole",
          "type": "bytes32"
        },
        {
          "indexed": true,
          "internalType": "bytes32",
          "name": "newAdminRole",
          "type": "bytes32"
        }
      ],
      "name": "RoleAdminChanged",
      "type": "event"
    },
    {
      "anonymous": false,
      "inputs": [
        {
          "indexed": true,
          "internalType": "bytes32",
          "name": "role",
          "type": "bytes32"
        },
        {
          "indexed": true,
          "internalType": "address",
          "name": "account",
          "type": "address"
        },
        {
          "indexed": true,
          "internalType": "address",
          "name": "sender",
          "type": "address"
        }
      ],
      "name": "RoleGranted",
      "type": "event"
    },
    {
      "anonymous": false,
      "inputs": [
        {
          "indexed": true,
          "internalType": "bytes32",
          "name": "role",
          "type": "bytes32"
        },
        {
          "indexed": true,
          "internalType": "address",
          "name": "account",
          "type": "address"
        },
        {
          "indexed": true,
          "internalType": "address",
          "name": "sender",
          "type": "address"
        }
      ],
      "name": "RoleRevoked",
      "type": "event"
    },
    {
      "anonymous": false,
      "inputs": [
        {
          "indexed": true,
          "internalType": "address",
          "name": "token",
          "type": "address"
        },
        {
          "indexed": false,
          "internalType": "uint256",
          "name": "amount",
          "type": "uint256"
        }
      ],
      "name": "TransferredBribe",
      "type": "event"
    },
    {
      "inputs": [],
      "name": "DEFAULT_ADMIN_ROLE",
      "outputs": [
        {
          "internalType": "bytes32",
          "name": "",
          "type": "bytes32"
        }
      ],
      "stateMutability": "view",
      "type": "function"
    },
    {
      "inputs": [
        {
          "internalType": "address",
          "name": "proposal",
          "type": "address"
        },
        {
          "internalType": "address",
          "name": "token",
          "type": "address"
        },
        {
          "internalType": "uint256",
          "name": "amount",
          "type": "uint256"
        }
      ],
      "name": "depositBribe",
      "outputs": [],
      "stateMutability": "nonpayable",
      "type": "function"
    },
    {
      "inputs": [
        {
          "internalType": "address",
          "name": "proposal",
          "type": "address"
        }
      ],
      "name": "depositBribe",
      "outputs": [],
      "stateMutability": "payable",
      "type": "function"
    },
    {
      "inputs": [],
      "name": "distributor",
      "outputs": [
        {
          "internalType": "address",
          "name": "",
          "type": "address"
        }
      ],
      "stateMutability": "view",
      "type": "function"
    },
    {
      "inputs": [],
      "name": "fee",
      "outputs": [
        {
          "internalType": "uint256",
          "name": "",
          "type": "uint256"
        }
      ],
      "stateMutability": "view",
      "type": "function"
    },
    {
      "inputs": [],
      "name": "feeAddress",
      "outputs": [
        {
          "internalType": "address",
          "name": "",
          "type": "address"
        }
      ],
      "stateMutability": "view",
      "type": "function"
    },
    {
      "inputs": [
        {
          "internalType": "bytes32",
          "name": "role",
          "type": "bytes32"
        }
      ],
      "name": "getRoleAdmin",
      "outputs": [
        {
          "internalType": "bytes32",
          "name": "",
          "type": "bytes32"
        }
      ],
      "stateMutability": "view",
      "type": "function"
    },
    {
      "inputs": [
        {
          "internalType": "bytes32",
          "name": "role",
          "type": "bytes32"
        },
        {
          "internalType": "address",
          "name": "account",
          "type": "address"
        }
      ],
      "name": "grantRole",
      "outputs": [],
      "stateMutability": "nonpayable",
      "type": "function"
    },
    {
      "inputs": [
        {
          "internalType": "bytes32",
          "name": "role",
          "type": "bytes32"
        },
        {
          "internalType": "address",
          "name": "account",
          "type": "address"
        }
      ],
      "name": "hasRole",
      "outputs": [
        {
          "internalType": "bool",
          "name": "",
          "type": "bool"
        }
      ],
      "stateMutability": "view",
      "type": "function"
    },
    {
      "inputs": [
        {
          "internalType": "address",
          "name": "",
          "type": "address"
        }
      ],
      "name": "proposalDeadlines",
      "outputs": [
        {
          "internalType": "uint256",
          "name": "",
          "type": "uint256"
        }
      ],
      "stateMutability": "view",
      "type": "function"
    },
    {
      "inputs": [
        {
          "internalType": "bytes32",
          "name": "role",
          "type": "bytes32"
        },
        {
          "internalType": "address",
          "name": "account",
          "type": "address"
        }
      ],
      "name": "renounceRole",
      "outputs": [],
      "stateMutability": "nonpayable",
      "type": "function"
    },
    {
      "inputs": [
        {
          "internalType": "bytes32",
          "name": "role",
          "type": "bytes32"
        },
        {
          "internalType": "address",
          "name": "account",
          "type": "address"
        }
      ],
      "name": "revokeRole",
      "outputs": [],
      "stateMutability": "nonpayable",
      "type": "function"
    },
    {
      "inputs": [
        {
          "internalType": "address",
          "name": "_distributor",
          "type": "address"
        }
      ],
      "name": "setDistributor",
      "outputs": [],
      "stateMutability": "nonpayable",
      "type": "function"
    },
    {
      "inputs": [
        {
          "internalType": "uint256",
          "name": "newFee",
          "type": "uint256"
        }
      ],
      "name": "setFee",
      "outputs": [],
      "stateMutability": "nonpayable",
      "type": "function"
    },
    {
      "inputs": [
        {
          "internalType": "address",
          "name": "_feeAddress",
          "type": "address"
        }
      ],
      "name": "setFeeAddress",
      "outputs": [],
      "stateMutability": "nonpayable",
      "type": "function"
    },
    {
      "inputs": [
        {
          "internalType": "bytes4",
          "name": "interfaceId",
          "type": "bytes4"
        }
      ],
      "name": "supportsInterface",
      "outputs": [
        {
          "internalType": "bool",
          "name": "",
          "type": "bool"
        }
      ],
      "stateMutability": "view",
      "type": "function"
    },
    {
      "inputs": [
        {
          "internalType": "address[]",
          "name": "tokens",
          "type": "address[]"
        }
      ],
      "name": "transferBribesToDistributor",
      "outputs": [],
      "stateMutability": "nonpayable",
      "type": "function"
    },
    {
      "inputs": [
        {
          "internalType": "address[]",
          "name": "proposals",
          "type": "address[]"
        },
        {
          "internalType": "uint256[]",
          "name": "deadlines",
          "type": "uint256[]"
        }
      ],
      "name": "updateProposals",
      "outputs": [],
      "stateMutability": "nonpayable",
      "type": "function"
    },
    {
      "inputs": [],
      "name": "weth",
      "outputs": [
        {
          "internalType": "address",
          "name": "",
          "type": "address"
        }
      ],
      "stateMutability": "view",
      "type": "function"
    }
  ],
  "transactionHash": "0x2515cc37219c66ddda39fd2c58ce2eef574b62dab6b684a9e8ad053122ac643d",
  "args": [
    "0xC02aaA39b223FE8D0A0e5C4F27eAD9083C756Cc2"
  ],
  "solcInputHash": "f11050518f5ea1cca811029dda16a9ff",
  "bytecode": "0x60a06040523480156200001157600080fd5b5060405162001add38038062001add8339810160408190526200003491620001a7565b6001600160601b0319606082901b1660805262000053600033620000f7565b6200007f7f5146a08baf902532d0ee2f909971144f12ca32651cd70cbee1117cddfb3b3b3333620000f7565b6101f46001819055600280546001600160a01b0319163317905560405181907f63fe946ed58429ac3c5e64d4356ff92c26d7fa1e73586515df8ba9f059ab54a590600090a260405133907fdcff558177ef1322e1a9308bd0d2b8b3922d8e05c3ec06323297bdd24db93ef090600090a25050620001d7565b62000103828262000107565b5050565b6000828152602081815260408083206001600160a01b038516845290915290205460ff1662000103576000828152602081815260408083206001600160a01b03851684529091529020805460ff19166001179055620001633390565b6001600160a01b0316816001600160a01b0316837f2f8788117e7eff1d82e926ec794901d17c78024a50270940304540a733656f0d60405160405180910390a45050565b600060208284031215620001b9578081fd5b81516001600160a01b0381168114620001d0578182fd5b9392505050565b60805160601c6118d26200020b6000396000818161023001528181610bd501528181610c630152610c9501526118d26000f3fe6080604052600436106101445760003560e01c80637c9bf695116100c0578063b118401811610074578063bfe1092811610059578063bfe10928146103c3578063d547741f146103e3578063ddca3f431461040357600080fd5b8063b118401814610383578063bd3cd549146103b057600080fd5b806391d14854116100a557806391d148541461030a578063a217fddf1461034e578063ab7d6eb91461036357600080fd5b80637c9bf695146102ca5780638705fcd4146102ea57600080fd5b80633a3238fc1161011757806341275358116100fc578063412753581461026a57806369fe0e2d1461028a57806375619ab5146102aa57600080fd5b80633a3238fc146101fe5780633fc8cef31461021e57600080fd5b806301ffc9a714610149578063248a9ca31461017e5780632f2ff15d146101bc57806336568abe146101de575b600080fd5b34801561015557600080fd5b506101696101643660046116d3565b610419565b60405190151581526020015b60405180910390f35b34801561018a57600080fd5b506101ae610199366004611690565b60009081526020819052604090206001015490565b604051908152602001610175565b3480156101c857600080fd5b506101dc6101d73660046116a8565b610450565b005b3480156101ea57600080fd5b506101dc6101f93660046116a8565b61047b565b34801561020a57600080fd5b506101dc6102193660046115c7565b61050c565b34801561022a57600080fd5b506102527f000000000000000000000000000000000000000000000000000000000000000081565b6040516001600160a01b039091168152602001610175565b34801561027657600080fd5b50600254610252906001600160a01b031681565b34801561029657600080fd5b506101dc6102a5366004611690565b6106e0565b3480156102b657600080fd5b506101dc6102c5366004611572565b610771565b3480156102d657600080fd5b506101dc6102e5366004611607565b6107d5565b3480156102f657600080fd5b506101dc610305366004611572565b610a0b565b34801561031657600080fd5b506101696103253660046116a8565b6000918252602082815260408084206001600160a01b0393909316845291905290205460ff1690565b34801561035a57600080fd5b506101ae600081565b34801561036f57600080fd5b506101dc61037e36600461158c565b610a6f565b34801561038f57600080fd5b506101ae61039e366004611572565b60046020526000908152604090205481565b6101dc6103be366004611572565b610b6b565b3480156103cf57600080fd5b50600354610252906001600160a01b031681565b3480156103ef57600080fd5b506101dc6103fe3660046116a8565b610d03565b34801561040f57600080fd5b506101ae60015481565b60006001600160e01b03198216637965db0b60e01b148061044a57506301ffc9a760e01b6001600160e01b03198316145b92915050565b60008281526020819052604090206001015461046c8133610d29565b6104768383610da7565b505050565b6001600160a01b03811633146104fe5760405162461bcd60e51b815260206004820152602f60248201527f416363657373436f6e74726f6c3a2063616e206f6e6c792072656e6f756e636560448201527f20726f6c657320666f722073656c66000000000000000000000000000000000060648201526084015b60405180910390fd5b6105088282610e45565b5050565b6003546002546001600160a01b039182169116816105765760405162461bcd60e51b815260206004820152602160248201527f566f74656d616b42726962653a20496e76616c6964206469737472696275746f6044820152603960f91b60648201526084016104f5565b6001600160a01b0381166105cc5760405162461bcd60e51b815260206004820181905260248201527f566f74656d616b42726962653a20496e76616c6964206665654164647265737360448201526064016104f5565b60005b838110156106d9576106c6838360008888868181106105fe57634e487b7160e01b600052603260045260246000fd5b90506020020160208101906106139190611572565b89898781811061063357634e487b7160e01b600052603260045260246000fd5b90506020020160208101906106489190611572565b6040516370a0823160e01b81523060048201526001600160a01b0391909116906370a082319060240160206040518083038186803b15801561068957600080fd5b505afa15801561069d573d6000803e3d6000fd5b505050506040513d601f19601f820116820180604052508101906106c191906116fb565b610ec4565b50806106d181611894565b9150506105cf565b5050505050565b60006106ec8133610d29565b612710821061073d5760405162461bcd60e51b815260206004820152601960248201527f566f74656d616b42726962653a20496e76616c6964206665650000000000000060448201526064016104f5565b600182905560405182907f63fe946ed58429ac3c5e64d4356ff92c26d7fa1e73586515df8ba9f059ab54a590600090a25050565b600061077d8133610d29565b6003805473ffffffffffffffffffffffffffffffffffffffff19166001600160a01b0384169081179091556040517f26351e175ca0261735d5253c1386be151da58f10e7d60599db07cf0a412f2aa390600090a25050565b7f5146a08baf902532d0ee2f909971144f12ca32651cd70cbee1117cddfb3b3b336108008133610d29565b60005b84811015610a03576004600087878481811061082f57634e487b7160e01b600052603260045260246000fd5b90506020020160208101906108449190611572565b6001600160a01b03166001600160a01b031681526020019081526020016000205484848381811061088557634e487b7160e01b600052603260045260246000fd5b9050602002013510156108da5760405162461bcd60e51b815260206004820152601e60248201527f566f74656d616b42726962653a20496e76616c696420646561646c696e65000060448201526064016104f5565b8383828181106108fa57634e487b7160e01b600052603260045260246000fd5b905060200201356004600088888581811061092557634e487b7160e01b600052603260045260246000fd5b905060200201602081019061093a9190611572565b6001600160a01b0316815260208101919091526040016000205585858281811061097457634e487b7160e01b600052603260045260246000fd5b90506020020160208101906109899190611572565b6001600160a01b03167f8dfa4a39b973cacc42c5d14d9461d66fd1fda5ea696f7d2a3c44fd9d7f11d04f8585848181106109d357634e487b7160e01b600052603260045260246000fd5b905060200201356040516109e991815260200190565b60405180910390a2806109fb81611894565b915050610803565b505050505050565b6000610a178133610d29565b6002805473ffffffffffffffffffffffffffffffffffffffff19166001600160a01b0384169081179091556040517fdcff558177ef1322e1a9308bd0d2b8b3922d8e05c3ec06323297bdd24db93ef090600090a25050565b6001600160a01b038316600090815260046020526040902054421115610ad75760405162461bcd60e51b815260206004820152601e60248201527f566f74656d616b42726962653a20496e76616c69642070726f706f73616c000060448201526064016104f5565b600354600254610af6916001600160a01b039081169116338585610ec4565b610b0f57610b0f6001600160a01b038316333084610fec565b336001600160a01b0316826001600160a01b0316846001600160a01b03167f6afe75e34a735ce3f37f9c1601e99fe9898d2c385cc0acad813bf77943871dcf84604051610b5e91815260200190565b60405180910390a4505050565b6001600160a01b038116600090815260046020526040902054421115610bd35760405162461bcd60e51b815260206004820152601e60248201527f566f74656d616b42726962653a20496e76616c69642070726f706f73616c000060448201526064016104f5565b7f00000000000000000000000000000000000000000000000000000000000000006001600160a01b031663d0e30db0346040518263ffffffff1660e01b81526004016000604051808303818588803b158015610c2e57600080fd5b505af1158015610c42573d6000803e3d6000fd5b5050600354600254610c8894506001600160a01b03918216935016905060007f000000000000000000000000000000000000000000000000000000000000000034610ec4565b50336001600160a01b03167f00000000000000000000000000000000000000000000000000000000000000006001600160a01b0316826001600160a01b03167f6afe75e34a735ce3f37f9c1601e99fe9898d2c385cc0acad813bf77943871dcf34604051610cf891815260200190565b60405180910390a450565b600082815260208190526040902060010154610d1f8133610d29565b6104768383610e45565b6000828152602081815260408083206001600160a01b038516845290915290205460ff1661050857610d65816001600160a01b03166014611072565b610d70836020611072565b604051602001610d8192919061172f565b60408051601f198184030181529082905262461bcd60e51b82526104f5916004016117b0565b6000828152602081815260408083206001600160a01b038516845290915290205460ff16610508576000828152602081815260408083206001600160a01b03851684529091529020805460ff19166001179055610e013390565b6001600160a01b0316816001600160a01b0316837f2f8788117e7eff1d82e926ec794901d17c78024a50270940304540a733656f0d60405160405180910390a45050565b6000828152602081815260408083206001600160a01b038516845290915290205460ff1615610508576000828152602081815260408083206001600160a01b0385168085529252808320805460ff1916905551339285917ff6391f5c32d9c69d2a47ea670b442974b53935d1edc7fd64eb21e047a839171b9190a45050565b60006001600160a01b03861615801590610ee657506001600160a01b03851615155b8015610ef25750600082115b15610fdf57600061271060015484610f0a919061181b565b610f1491906117fb565b90506001600160a01b038516610f5c57610f4387610f32838661183a565b6001600160a01b0387169190611268565b610f576001600160a01b0385168783611268565b610f92565b610f7d8588610f6b848761183a565b6001600160a01b038816929190610fec565b610f926001600160a01b038516868884610fec565b836001600160a01b03167f7bd7b99b464a37dcf9656b82953f8c05e2544634a6507aecabe84980dac52e4184604051610fcd91815260200190565b60405180910390a26001915050610fe3565b5060005b95945050505050565b6040516001600160a01b038085166024830152831660448201526064810182905261106c9085906323b872dd60e01b906084015b60408051601f198184030181529190526020810180517bffffffffffffffffffffffffffffffffffffffffffffffffffffffff166001600160e01b031990931692909217909152611298565b50505050565b6060600061108183600261181b565b61108c9060026117e3565b67ffffffffffffffff8111156110b257634e487b7160e01b600052604160045260246000fd5b6040519080825280601f01601f1916602001820160405280156110dc576020820181803683370190505b509050600360fc1b8160008151811061110557634e487b7160e01b600052603260045260246000fd5b60200101906001600160f81b031916908160001a905350600f60fb1b8160018151811061114257634e487b7160e01b600052603260045260246000fd5b60200101906001600160f81b031916908160001a905350600061116684600261181b565b6111719060016117e3565b90505b6001811115611212577f303132333435363738396162636465660000000000000000000000000000000085600f16601081106111c057634e487b7160e01b600052603260045260246000fd5b1a60f81b8282815181106111e457634e487b7160e01b600052603260045260246000fd5b60200101906001600160f81b031916908160001a90535060049490941c9361120b8161187d565b9050611174565b5083156112615760405162461bcd60e51b815260206004820181905260248201527f537472696e67733a20686578206c656e67746820696e73756666696369656e7460448201526064016104f5565b9392505050565b6040516001600160a01b03831660248201526044810182905261047690849063a9059cbb60e01b90606401611020565b60006112ed826040518060400160405280602081526020017f5361666545524332303a206c6f772d6c6576656c2063616c6c206661696c6564815250856001600160a01b031661137d9092919063ffffffff16565b805190915015610476578080602001905181019061130b9190611670565b6104765760405162461bcd60e51b815260206004820152602a60248201527f5361666545524332303a204552433230206f7065726174696f6e20646964206e60448201527f6f7420737563636565640000000000000000000000000000000000000000000060648201526084016104f5565b606061138c8484600085611394565b949350505050565b60608247101561140c5760405162461bcd60e51b815260206004820152602660248201527f416464726573733a20696e73756666696369656e742062616c616e636520666f60448201527f722063616c6c000000000000000000000000000000000000000000000000000060648201526084016104f5565b843b61145a5760405162461bcd60e51b815260206004820152601d60248201527f416464726573733a2063616c6c20746f206e6f6e2d636f6e747261637400000060448201526064016104f5565b600080866001600160a01b031685876040516114769190611713565b60006040518083038185875af1925050503d80600081146114b3576040519150601f19603f3d011682016040523d82523d6000602084013e6114b8565b606091505b50915091506114c88282866114d3565b979650505050505050565b606083156114e2575081611261565b8251156114f25782518084602001fd5b8160405162461bcd60e51b81526004016104f591906117b0565b80356001600160a01b038116811461152357600080fd5b919050565b60008083601f840112611539578182fd5b50813567ffffffffffffffff811115611550578182fd5b6020830191508360208260051b850101111561156b57600080fd5b9250929050565b600060208284031215611583578081fd5b6112618261150c565b6000806000606084860312156115a0578182fd5b6115a98461150c565b92506115b76020850161150c565b9150604084013590509250925092565b600080602083850312156115d9578182fd5b823567ffffffffffffffff8111156115ef578283fd5b6115fb85828601611528565b90969095509350505050565b6000806000806040858703121561161c578081fd5b843567ffffffffffffffff80821115611633578283fd5b61163f88838901611528565b90965094506020870135915080821115611657578283fd5b5061166487828801611528565b95989497509550505050565b600060208284031215611681578081fd5b81518015158114611261578182fd5b6000602082840312156116a1578081fd5b5035919050565b600080604083850312156116ba578182fd5b823591506116ca6020840161150c565b90509250929050565b6000602082840312156116e4578081fd5b81356001600160e01b031981168114611261578182fd5b60006020828403121561170c578081fd5b5051919050565b60008251611725818460208701611851565b9190910192915050565b7f416363657373436f6e74726f6c3a206163636f756e7420000000000000000000815260008351611767816017850160208801611851565b7f206973206d697373696e6720726f6c652000000000000000000000000000000060179184019182015283516117a4816028840160208801611851565b01602801949350505050565b60208152600082518060208401526117cf816040850160208701611851565b601f01601f19169190910160400192915050565b600082198211156117f6576117f66118af565b500190565b60008261181657634e487b7160e01b81526012600452602481fd5b500490565b6000816000190483118215151615611835576118356118af565b500290565b60008282101561184c5761184c6118af565b500390565b60005b8381101561186c578181015183820152602001611854565b8381111561106c5750506000910152565b60008161188c5761188c6118af565b506000190190565b60006000198214156118a8576118a86118af565b5060010190565b634e487b7160e01b600052601160045260246000fdfea164736f6c6343000804000a",
  "devdoc": {
    "kind": "dev",
    "methods": {
      "getRoleAdmin(bytes32)": {
        "details": "Returns the admin role that controls `role`. See {grantRole} and {revokeRole}. To change a role's admin, use {_setRoleAdmin}."
      },
      "grantRole(bytes32,address)": {
        "details": "Grants `role` to `account`. If `account` had not been already granted `role`, emits a {RoleGranted} event. Requirements: - the caller must have ``role``'s admin role."
      },
      "hasRole(bytes32,address)": {
        "details": "Returns `true` if `account` has been granted `role`."
      },
      "renounceRole(bytes32,address)": {
        "details": "Revokes `role` from the calling account. Roles are often managed via {grantRole} and {revokeRole}: this function's purpose is to provide a mechanism for accounts to lose their privileges if they are compromised (such as when a trusted device is misplaced). If the calling account had been granted `role`, emits a {RoleRevoked} event. Requirements: - the caller must be `account`."
      },
      "revokeRole(bytes32,address)": {
        "details": "Revokes `role` from `account`. If `account` had been granted `role`, emits a {RoleRevoked} event. Requirements: - the caller must have ``role``'s admin role."
      },
      "supportsInterface(bytes4)": {
        "details": "See {IERC165-supportsInterface}."
      }
    },
    "version": 1
  },
  "userdoc": {
    "kind": "user",
    "methods": {},
    "version": 1
  },
  "storageLayout": {
    "storage": [
      {
        "astId": 24,
        "contract": "contracts/VotemakBribe.sol:VotemakBribe",
        "label": "_roles",
        "offset": 0,
        "slot": "0",
        "type": "t_mapping(t_bytes32,t_struct(RoleData)19_storage)"
      },
      {
        "astId": 2342,
        "contract": "contracts/VotemakBribe.sol:VotemakBribe",
        "label": "fee",
        "offset": 0,
        "slot": "1",
        "type": "t_uint256"
      },
      {
        "astId": 2344,
        "contract": "contracts/VotemakBribe.sol:VotemakBribe",
        "label": "feeAddress",
        "offset": 0,
        "slot": "2",
        "type": "t_address"
      },
      {
        "astId": 2346,
        "contract": "contracts/VotemakBribe.sol:VotemakBribe",
        "label": "distributor",
        "offset": 0,
        "slot": "3",
        "type": "t_address"
      },
      {
        "astId": 2350,
        "contract": "contracts/VotemakBribe.sol:VotemakBribe",
        "label": "proposalDeadlines",
        "offset": 0,
        "slot": "4",
        "type": "t_mapping(t_address,t_uint256)"
      }
    ],
    "types": {
      "t_address": {
        "encoding": "inplace",
        "label": "address",
        "numberOfBytes": "20"
      },
      "t_bool": {
        "encoding": "inplace",
        "label": "bool",
        "numberOfBytes": "1"
      },
      "t_bytes32": {
        "encoding": "inplace",
        "label": "bytes32",
        "numberOfBytes": "32"
      },
      "t_mapping(t_address,t_bool)": {
        "encoding": "mapping",
        "key": "t_address",
        "label": "mapping(address => bool)",
        "numberOfBytes": "32",
        "value": "t_bool"
      },
      "t_mapping(t_address,t_uint256)": {
        "encoding": "mapping",
        "key": "t_address",
        "label": "mapping(address => uint256)",
        "numberOfBytes": "32",
        "value": "t_uint256"
      },
      "t_mapping(t_bytes32,t_struct(RoleData)19_storage)": {
        "encoding": "mapping",
        "key": "t_bytes32",
        "label": "mapping(bytes32 => struct AccessControl.RoleData)",
        "numberOfBytes": "32",
        "value": "t_struct(RoleData)19_storage"
      },
      "t_struct(RoleData)19_storage": {
        "encoding": "inplace",
        "label": "struct AccessControl.RoleData",
        "members": [
          {
            "astId": 16,
            "contract": "contracts/VotemakBribe.sol:VotemakBribe",
            "label": "members",
            "offset": 0,
            "slot": "0",
            "type": "t_mapping(t_address,t_bool)"
          },
          {
            "astId": 18,
            "contract": "contracts/VotemakBribe.sol:VotemakBribe",
            "label": "adminRole",
            "offset": 0,
            "slot": "1",
            "type": "t_bytes32"
          }
        ],
        "numberOfBytes": "64"
      },
      "t_uint256": {
        "encoding": "inplace",
        "label": "uint256",
        "numberOfBytes": "32"
      }
    }
  }
}